:100000000C94BE220C94FE220C94FE220C94FE2230
:100010000C94FE220C94FE220C94FE220C94FE22E0
:100020000C94FE220D94B32F0D94B32F0D94B32F87
:100030000C94117B0C94FE220C94FE220C94FE2254
:100040000C94FE220C9469DE0C94FE220C94FE2289
:100050000C94FE220C94FE220C940BDD0D94F632CF
:100060000C94FE220C94AB4B0C94764B0C94FE2219
:100070000C94FE220C94FE220C94FE220C94FE2280
:100080000C94FE220C94FE220C94FE220C94FE2270
:100090000C94FE220C94FE220C94FE220C94FE2260
:1000A0000C94FE220C94FE220C94FE220C94FE2250
:1000B0000C94FE220C94FE220C94FE220C94FE2240
:1000C0000C94FE220C94FE220C94FE220C94FE2230
:1000D0000C94FE220C94FE220C94FE220C94FE2220
:1000E0000C94FE2205A84CCDB2D44EB93836A902E4
:1000F0000C50B9918688083CA6AAAA2ABE00000026
:10010000803F0D94E1300D944A0B0D94BC300D945A
:100110004A0C0D94E5300D949D300D94E03D0D9406
:10012000EF300D94490C0D94A2300D94C9300D940C
:10013000E9300D94CD300D94C0300D94620B0D94C8
:10014000B4300D94D3300D94BF0B0D94FE3D0D943F
:10015000D7300D941C0C0D94D60B0D94B8300D9423
:10016000F20C0D94630B0D94DB300D94C3300D94A1
:10017000F3304E414E494E495459494E46CDCCCCB0
:100180003D0AD7233C17B7D13877CC2B329595E66B
:10019000241FB14F0A000020410000C84200401C4B
:1001A0004620BCBE4CCA1B0E5AAEC59D7400407A98
:1001B00010F35A00A0724E18090010A5D4E80000F0
:1001C000E87648170000E40B54020000CA9A3B008E
:1001D0000000E1F505000080969800000040420F05
:1001E000000000A08601000000102700000000E8C9
:1001F00003000000006400000000000A000000008E
:10020000000100000000002C76D888DC674F08232E
:10021000DFC1DFAE59E1B1B796E5E3E453C63AE694
:1002200051997696E8E6C28426EB898C9B62ED4074
:100230007C6FFCEFBC9C9F40F2BAA56FA5F49005C3
:100240005A2AF75C936B6CF9676DC11BFCE0E40DF7
:1002500047FEF520E6B500D0ED902E0300943577EB
:10026000050080841E080000204E0A000000C80C13
:10027000333333330F986E12831141EF8D2114897C
:100280003BE65516CFFEE6DB18D1844B381BF77CD6
:100290001D901DA4BBE424203284725E228100C91B
:1002A000F124ECA1E53D27434F4D4D554E494341C7
:1002B00054494F4E0044525952554E004552524FE8
:1002C000525300494E464F004543484F0045727215
:1002D0006F722077726974696E6720746F2045456C
:1002E00050524F4D210A004731452D3200473931D8
:1002F000005761746368646F672074696D656F751A
:10030000742E20526573657420726571756972650B
:10031000642E0A00444554454E49444100507269D8
:100320006E7465722073746F707065642064756597
:1003300020746F206572726F72732E204669782068
:10034000746865206572726F7220616E64207573C7
:1003500065204D39393920746F207265737461726C
:10036000742E202854656D706572617475726520F5
:1003700069732072657365742E20536574206974E7
:100380002061667465722072657374617274696E3F
:1003900067290A004E6F20436865636B73756D2093
:1003A00077697468206C696E65206E756D62657220
:1003B0002C204C617374204C696E653A20004E6F9E
:1003C00020436865636B73756D2077697468206C72
:1003D000696E65206E756D6265722C204C61737458
:1003E000204C696E653A2000636865636B73756DB8
:1003F000206D69736D617463682C204C6173742087
:100400004C696E653A20004C696E65204E756D62D0
:100410006572206973206E6F74204C617374204C78
:10042000696E65204E756D6265722B312C204C61B2
:100430007374204C696E653A20004D3131300053A1
:10044000657269616C20737461747573206D697372
:100450006D617463680A00544D4B5F4552524F52B0
:100460003A3530303A71756575652E6370702D6759
:1004700065745F7364636172645F636F6D6D616EF9
:10048000647328290A0A002121204B494C4C20631F
:10049000617573656420627920746F6F206D756378
:1004A0006820696E6163746976652074696D652082
:1004B0002D2063757272656E7420636F6D6D616E51
:1004C000643A20004D36303020582D3230205931DA
:1004D00030205A350A204D333030005344207265A5
:1004E00074697261646F00534420696E736572743D
:1004F00061646F004D323453256C6454256C640084
:100500004739322E39452573004731462564004D61
:10051000313036502569532569004D32303044253D
:1005200073004739322E395A2573004739322E3934
:10053000592573004739322E39582573004D34320E
:10054000305325635A2573004D31303453256900EB
:100550004D3134305325690047393000473120454B
:100560003200473931004739322E39453000544D79
:100570004B5F4552524F523A3530343A57617463AB
:1005800068646F670A004D313030305300506F722D
:10059000206661766F722C207265696E6963696589
:1005A00000494D505245534F524120444554454E09
:1005B0004944410025533A202553004D5545525496
:1005C00041006563686F3A000042696C696E65615D
:1005D00072204C6576656C696E6720477269643A73
:1005E0000A00486F74656E6420746F6F20636F6CCF
:1005F000640A00507265737320627574746F6E20A4
:10060000746F20726573756D650A00496E7365724B
:10061000742066696C616D656E7420616E64207013
:100620007265737320627574746F6E0A0050726520
:10063000737320627574746F6E20746F20686561C7
:1006400074206E6F7A7A6C650A004C4F57004849E7
:100650004748004F4B004572726F723A20416C6CF4
:10066000200020636F6E6E656374696F6E2E2E2E90
:10067000200054657374696E6720004C4F57004822
:10068000494748004F4B004572726F723A20416CE7
:100690006C200020636F6E6E656374696F6E2E2E22
:1006A0002E200054657374696E6720004C4F57000C
:1006B00048494748004F4B004572726F723A2041DB
:1006C0006C6C200020636F6E6E656374696F6E2EB4
:1006D0002E2E200054657374696E6720004C4F57AE
:1006E0000048494748004F4B004572726F723A20EC
:1006F000416C6C200020636F6E6E656374696F6E71
:100700002E2E2E200054657374696E6720004552AA
:10071000524F5220434F4E45582E20544D430054C3
:100720004D4B5F4552524F523A3035303A004F46AA
:10073000460A004661646520486569676874200060
:10074000426564204C6576656C696E672000466181
:10075000696C656420746F20656E61626C6520420F
:100760006564204C6576656C696E670A00496E7633
:10077000616C6964206D6573682E0A004D353030F8
:10078000004D696469656E646F2050756E746F000A
:1007900025532025692F2569002E0A002F0050724D
:1007A0006F62696E67206D65736820706F696E7423
:1007B0002000202844525952554E290047323920F2
:1007C0004175746F20426564204C6576656C696E76
:1007D00067003F20284C2C522C462C4229206F7554
:1007E00074206F6620626F756E64732E0A003F2856
:1007F00056296572626F7365206C6576656C206939
:100800006D706C61757369626C652028302D3429B8
:100810002E0A00426164205A2076616C75650A00D8
:100820004E6F2062696C696E6561722067726964DF
:100830000A004465737669616369C3B36E0025532A
:100840003A2025730046696E6973686564210A0061
:100850003A207A3A2000206F662000476F696E6761
:1008600020746F3A20580043570A00206469723A96
:100870000020616E676C653A005374617274207277
:1008800061646975733A004D34382050756E746F29
:100890000025533A2025642F256400506F73697436
:1008A000696F6E696E67207468652070726F62652B
:1008B0002E2E2E0A003F4C656773206F66206D6FE9
:1008C00076656D656E7420696D706C6175736962B3
:1008D0006C652028302D3135292E0A003F202858FC
:1008E0002C5929206F7574206F6620626F756E64B5
:1008F000732E0A0050726F6265206F7574206F66E8
:1009000020626F756E6473003F53616D706C65207B
:1009100073697A65206E6F7420706C61757369629B
:100920006C652028342D3530292E0A004D343820AE
:100930005A2D50726F6265205265706561746162F4
:10094000696C69747920546573740A003F285629CC
:100950006572626F7365206C6576656C20696D7079
:100960006C61757369626C652028302D34292E0AFC
:10097000005374616E6461726420446576696174C9
:10098000696F6E3A20002052616E67653A20002040
:100990004D61783A2000204D696E3A20002053695D
:1009A000676D613A20004D65616E3A200020440079
:1009B00020204D323030205300202844697361627A
:1009C0006C6564293A0046696C616D656E742073CC
:1009D000657474696E67730020204D323031205881
:1009E000004D617820416363656C65726174696F65
:1009F0006E2028756E6974732F7332290020204D84
:100A00003230332058004D6178206665656472612C
:100A10007465732028756E6974732F7329002052D2
:100A20000020204D323034205000416363656C65F6
:100A3000726174696F6E2028756E6974732F7332DA
:100A4000292028503C7072696E742D616363656C57
:100A50003E20523C726574726163742D61636365FC
:100A60006C3E20543C74726176656C2D61636365E5
:100A70006C3E290020540020530020204D32303598
:100A8000204200416476616E6365642028423C6DBB
:100A9000696E5F7365676D656E745F74696D655FC0
:100AA00075733E20533C6D696E5F66656564726167
:100AB00074653E20543C6D696E5F74726176656C3E
:100AC0005F66656564726174653E20583C6D61784F
:100AD0005F785F6A65726B3E20593C6D61785F7923
:100AE0005F6A65726B3E205A3C6D61785F7A5F6A1F
:100AF00065726B3E20453C6D61785F655F6A65722B
:100B00006B3E290020440020490020204D33303125
:100B1000205000486F74656E642050494400203BAB
:100B2000204C6576656C696E67200020204D34325C
:100B3000302053004175746F20426564204C657607
:100B4000656C696E67002046002042002048002046
:100B5000204D3134352053004D6174657269616CEC
:100B60002068656174757020706172616D6574656F
:100B700072730020204D393036002054302045005B
:100B80005374657070657220647269766572206353
:100B9000757272656E740020204D39313300205417
:100BA0003020450048796272696420546872657328
:100BB000686F6C640020204D353639205331005465
:100BC00030204500447269766572207374657070D8
:100BD000696E67206D6F64650020204D39303020CC
:100BE0004B004C696E65617220416476616E63658D
:100BF00000203B2053656E736F722000204400205C
:100C0000204D34313220530046696C616D656E743D
:100C10002072756E6F75742073656E736F7200202D
:100C20004A002020473239205720490020204D31EA
:100C300034392043203B20556E69747320696E203F
:100C400043656C736975730A0054656D70657261F4
:100C50007475726520556E697473002020473231B7
:100C6000203B004C696E65617220556E697473009B
:100C70002E0A002028302D313029002076616C7535
:100C800065206F7574206F662072616E6765004124
:100C90006476616E6365204B3D00203B002055006B
:100CA00020204D363033204C0046696C616D656EF6
:100CB00074206C6F61642F756E6C6F6164004D32CF
:100CC0003453256C6454256C64004739322E394501
:100CD00025730047314625640047315A257346364F
:100CE0003030004D3432305325635A25730047317C
:100CF0005825735925734633303030004D31303626
:100D0000502569532569004D313039532569004D0F
:100D1000323030442573004D343230205330205A65
:100D20003000473238523058590047315A257346FF
:100D3000363030004739322E395A25730047393260
:100D40002E394530004D313039532569004D313948
:100D500030532569004D343230205330205A300052
:100D6000203B200020204D343133205300506F773A
:100D700065722D6C6F7373207265636F766572791F
:100D8000007370726561644379636C6500737465A8
:100D9000616C746843686F70002064726976657274
:100DA000206D6F64653A0900737072656164437900
:100DB000636C6500737465616C746843686F700080
:100DC00020647269766572206D6F64653A090073FC
:100DD00070726561644379636C6500737465616CFE
:100DE000746843686F700020647269766572206D64
:100DF0006F64653A09007370726561644379636C6E
:100E00006500737465616C746843686F700020647A
:100E10007269766572206D6F64653A09002073749B
:100E200065616C746843686F70206D6178207370C1
:100E30006565643A200020737465616C746843686A
:100E40006F70206D61782073706565643A200020B2
:100E5000737465616C746843686F70206D6178208D
:100E600073706565643A200020737465616C746802
:100E700043686F70206D61782073706565643A20F7
:100E8000003B200020496E76616C696420657874AF
:100E9000727564657220005265706F736F2E2E2E0E
:100EA000005A2050726F6265205061737420426551
:100EB000640A00536F6E6461205A20667565726122
:100EC0002063616D61004732384C3000205A3A206F
:100ED0000020593A200042656420583A20004D65B0
:100EE000736820706F696E74206F7574206F662050
:100EF00072616E67650A0050756C73617220706173
:100F00007261205265616E756461720053696E2072
:100F10006D6F76696D69656E746F00456E642066ED
:100F2000696C65206C6973740A00426567696E209C
:100F300066696C65206C6973740A004E6F206D657C
:100F40006469610A00286E6F2066696C6529004338
:100F5000757272656E742066696C653A2000436133
:100F60006E6E6F74206F70656E2073756264697247
:100F700020005072696E742074696D653A20006FAC
:100F80006B006F666600C802C302BC02B502A7020E
:100F900044454255473A004D31313220536875740B
:100FA000646F776E004D3131332053004E656275AA
:100FB0006C6120506C757320436C6F7564204F46D4
:100FC000462E004649524D574152455F4E414D45D0
:100FD0003A4D61726C696E20322E302E392E332ECE
:100FE000392050524F544F434F4C5F56455253494E
:100FF0004F4E3A312E30204D414348494E455F54C3
:101000005950453A4E6562756C6120506C7573207D
:10101000436C6F7564200A002F2F004D313435204A
:10102000533C696E6465783E206F7574206F66204E
:1010300072616E67652028302D31290A0020580022
:1010400020204D61783A2000200020204D696E3A22
:101050002000203B200020204D323131205300530E
:101060006F667420656E6473746F70730046523AD5
:101070000020466C6F773A200050726F6265204FF7
:101080006666736574205A0050726F6265204F6601
:1010900066736574205A0064697300656E004329A5
:1010A0000A0061626C656420286D696E2074656D4C
:1010B000702000436F6C642065787472756465738A
:1010C0002061726520004F4646004F4E006D6D0056
:1010D000203B2044697374616E6365200046696C2F
:1010E000616D656E742072756E6F757420004D347D
:1010F000323120696E636F72726563742070617241
:10110000616D657465722075736167650A004D6570
:10111000736820706F696E74206F7574206F66201D
:1011200072616E67650A00454550524F4D204F4B26
:101130000A00290A0020746F20003F5A206F75743E
:10114000206F662072616E6765202800290A0020E2
:10115000746F20003F59206F7574206F6620726194
:101160006E676520282D00290A0020746F20003F3B
:1011700058206F7574206F662072616E6765202835
:101180002D00206472697665722063757272656ED7
:10119000743A2000206472697665722063757272F9
:1011A000656E743A200020647269766572206375FA
:1011B0007272656E743A20002064726976657220DE
:1011C00063757272656E743A20004739310A2047A0
:1011D00031205A332046353030300A204739300A22
:1011E00020473120583232302046353030300A2006
:1011F000473120593232302046353030300A4D33B5
:10120000303000446F6E65207072696E74696E676D
:101210002066696C650A004D3737004D333100494F
:101220006E76616C69642065787472756465720AA3
:101230000020204D323036205800486F6D65206FF9
:1012400066667365740044657366617365206170DA
:101250006C6963616461004572723A20546F6F205B
:101260006661722100546F6F206661722066726F32
:101270006D207265666572656E636520706F696E5C
:10128000740A00446966663A2020200046726F6D39
:101290005374703A00537465707065723A00556EFD
:1012A0004C6576656C3A004C6576656C65643A0011
:1012B0005261773A20202020000A4C6F67696361F1
:1012C0006C3A00436F756E7420453A0020286D6DAE
:1012D0002900203B0020204D3835312058005A2D60
:1012E00050726F6265204F6666736574002569737E
:1012F0000025696D20256973002569682025696DC1
:101300002025697300256964202569682025696D99
:10131000202569730025697920256964202569687D
:101320002025696D20256973000A53746174733A2E
:101330002046696C616D656E7420757365643A2032
:10134000002C204C6F6E67657374206A6F623A20C0
:1013500000546F74616C2074696D653A2000537499
:101360006174733A20002C204661696C65643A20F0
:10137000002C2046696E69736865643A20005072DB
:10138000696E74733A200053746174733A20004597
:101390006E667269616E646F0043616C656E746144
:1013A0006E646F0045312025530020573A00456E8A
:1013B000667269616E646F2043616D612E2E2E002E
:1013C00043616C656E74616E646F2043616D612E64
:1013D0002E2E0023646566696E652044454641559E
:1013E0004C545F004B6420004B6920004B70200080
:1013F000504944204175746F74756E652066696E3E
:101400006973686564212050757420746865206C68
:10141000617374204B702C204B6920616E64204BEB
:101420006420636F6E7374616E74732066726F6D87
:101430002062656C6F7720696E746F20436F6E66F3
:10144000696775726174696F6E2E680A005049444D
:10145000204175746F74756E65206661696C656492
:10146000212074696D656F75740A00544D4B5F459A
:1014700052524F523A3033303A00544D4B5F45523E
:10148000524F523A3033313A00504944204175743A
:101490006F74756E65206661696C656421205465A2
:1014A0006D706572617475726520746F6F20686904
:1014B00067680A00504944204379636C65730025CE
:1014C000532025692F256900204B643A2000204BCA
:1014D000693A2000204B703A200020436C617373FE
:1014E000696320504944200A002054753A200020A6
:1014F0004B753A2000206D61783A2000206D696EAE
:101500003A200020643A200020626961733A20008A
:101510005761697420666F72206865617420757008
:101520002E2E2E00504944204175746F74756E65DF
:101530002073746172740A00504944204175746FBD
:1015400074756E65206661696C6564212054656DF3
:10155000706572617475726520746F6F2068696759
:10156000680A00504944204175746F74756E652097
:101570006661696C656421204261642068656174FC
:1015800065722069640A00504944204175746F2DCA
:10159000616A75737465004572723A2075746638B5
:1015A00020666F6E74206E6F7420696E6974696155
:1015B0006C697A65642E004572723A2075746638DB
:1015C00020666F6E74206E6F7420696E6974696135
:1015D0006C697A65642E004572723A2075746638BB
:1015E00020666F6E74206E6F7420696E6974696115
:1015F0006C697A65642E00000C0F00FE070225035B
:10160000BB01FFFE0AFE08FE05080806000040F0C8
:10161000C88888987810050808060000C0F88888EF
:10162000888888F80505050600012030F830200577
:1016300008080600002070F820202020E005090995
:101640000600FF2070A8A8B8888870200705050745
:101650000001D86C366CD80509090600FFF8A88887
:1016600088888888A8F8050A0A0600FE205050508D
:101670005088A8A8887003030306000340A040FF19
:10168000FFFFFFFFFFFFFFFFFFFFFFFFFFFFFFFF6A
:10169000FFFFFFFFFF0000000605FF01070706022E
:1016A0000080808080800080030303060105A0A0E5
:1016B000A005060606000050F85050F8500509092C
:1016C0000600FF2070A8A07028A870200507070654
:1016D0000000C8C810204098980507070600004081
:1016E000A0A040A890680103030602058080800343
:1016F00009090601FF204040808080404020030906
:10170000090601FF80404020202040408005070757
:1017100006000020A8702070A8200505050600011D
:101720002020F820200203030601FFC040800501AD
:1017300001060003F8020202060100C0C005070707
:101740000600000810102040408005070706000032
:10175000708898A8C8887003070706010040C04039
:10176000404040E005070706000070880810204050
:10177000F8050707060000F808103008887005070C
:101780000706000010305090F810100507070600FB
:1017900000F880F008088870050707060000304050
:1017A00080F0888870050707060000F808101020F0
:1017B000202005070706000070888870888870055B
:1017C0000707060000708888780810600205050683
:1017D0000100C0C000C0C00206060601FFC0C00074
:1017E000C04080030505060101204080402005031C
:1017F00003060002F800F8030505060101804020F9
:101800004080050707060000708810202000200592
:1018100007070600007088B8A8B88070050707069B
:101820000000708888F8888888050707060000F09F
:101830004848704848F00507070600007088808017
:10184000808870050707060000F04848484848F0BF
:10185000050707060000F88080F08080F80507077C
:10186000060000F88080F0808080050707060000F1
:10187000708880809888700507070600008888882F
:10188000F8888888030707060100E0404040404090
:10189000E0050707060000381010101090600507DB
:1018A000070600008890A0C0A090880507070600E2
:1018B00000808080808080F805070706000088D8B7
:1018C000A8888888880507070600008888C8A8981F
:1018D0008888050707060000708888888888700552
:1018E0000707060000F08888F0808080050707065B
:1018F000000070888888A89068050707060000F037
:101900008888F0A09088050707060000708880701E
:10191000088870050707060000F8202020202020F6
:1019200005070706000088888888888870050707EB
:1019300006000088888888505020050707060000A8
:1019400088888888A8A8500507070600008888505E
:10195000205088880507070600008888502020202E
:1019600020050707060000F80810204080F803094A
:10197000090601FFE080808080808080E005070705
:10198000060000804040201010080309090601FFEE
:10199000E020202020202020E00503030600052071
:1019A00050880501010600FEF803030306010580C7
:1019B00040200505050600007008788878050707AF
:1019C0000600008080F0888888F005050506000084
:1019D00070808088700507070600000808788888EE
:1019E00088780505050600007088F08070050707F7
:1019F000060000304840E04040400507070600FE72
:101A0000708888887808700507070600008080F0D5
:101A1000888888880307070601004000C0404040CE
:101A2000E00409090601FE1000301010101090604B
:101A300005070706000080808890E090880307076C
:101A4000060100C04040404040E00505050600009A
:101A5000D0A8A8A8A8050505060000B0C8888888F1
:101A600005050506000070888888700507070600D0
:101A7000FEF0888888F080800507070600FE7888D9
:101A80008888780808050505060000B0C8808080B1
:101A900005050506000078807008F00507070600B8
:101AA000002020F820202018050505060000888861
:101AB0008898680505050600008888885020050577
:101AC000050600008888A8A85005050506000088BE
:101AD000502050880507070600FE8888885020405F
:101AE00080050505060000F8102040F803090906E6
:101AF00001FF20404040804040402001090906028B
:101B0000FF8080808080808080800309090601FF3B
:101B100080404040204040408005030306000248CA
:101B2000A890FFFFFFFFFFFFFFFFFFFFFFFFFFFF8B
:101B3000FFFFFFFFFFFFFFFFFFFFFFFFFFFFFFFFB5
:101B4000FFFFFF0000000605FF01070706020080F7
:101B50000080808080800507070600FF2070A8A015
:101B6000A87020050707060000304840E04048B054
:101B7000050505060000A8508850A80507070600BF
:101B8000008850F820F82020010707060200808016
:101B900080008080800408080601007080609090BA
:101BA0006010E0030101060107A006070706000018
:101BB0007884B4A4B4847803050506010460A060A9
:101BC00000E00505050600002850A0502805030385
:101BD000060001F80808030101060103E0060707F3
:101BE0000600007884B4A4A48478050101060007E7
:101BF000F8040404060105609090600507070600DC
:101C0000002020F8202000F803050506010440A06C
:101C10002040E0030505060104C0204020C0030366
:101C2000030601052040800507070600FE88888816
:101C300098E8808005080806000078E8E8E8682849
:101C40002828020202060203C0C00302020601FEA7
:101C500020C003050506010440C04040E00305051F
:101C600006010540A04000E0050505060000A05063
:101C70002850A0050A0A06000040C048506050B035
:101C8000507810050A0A06000040C048506050A86D
:101C9000081038050A0A060000C0204830E050B09D
:101CA00050781005070706000020002020408870AB
:101CB000050A0A060000402000708888F888888895
:101CC000050A0A060000102000708888F8888888B5
:101CD000050A0A060000205000708888F888888865
:101CE000050A0A06000068B000708888F8888888AD
:101CF0000509090600005000708888F88888880562
:101D00000A0A060000205020708888F88888880514
:101D1000070706000078A0A0F0A0A0B805090906F2
:101D200000FE708880808088701060050A0A0600B6
:101D300000402000F88080F08080F8050A0A060044
:101D400000102000F88080F08080F8050A0A060064
:101D500000205000F88080F08080F8050909060016
:101D6000005000F88080F08080F8030A0A06010025
:101D7000804000E04040404040E0030A0A06010085
:101D8000204000E04040404040E0030A0A060100D5
:101D900040A000E04040404040E003090906010047
:101DA000A000E04040404040E0050707060000700A
:101DB0004848E8484870050A0A06000068B00088EC
:101DC00088C8A8988888050A0A0600004020007084
:101DD000888888888870050A0A060000102000702C
:101DE000888888888870050A0A06000020500070DC
:101DF000888888888870050A0A06000068B0007024
:101E00008888888888700509090600005000708855
:101E1000888888887005050506000188502050884C
:101E20000509090600FF087098A8A8A8C8708005D1
:101E30000A0A060000402000888888888888700583
:101E40000A0A0600001020008888888888887005A3
:101E50000A0A060000205000888888888888700553
:101E60000909060000500088888888888870050A5B
:101E70000A06000010200088885020202020040737
:101E80000706010080E0909090E0800507070600BB
:101E900000708890A09088B00508080600004020D7
:101EA0000070087888780508080600001020007087
:101EB0000878887805080806000020500070087827
:101EC000887805080806000068B0007008788878EF
:101ED0000507070600005000700878887805080894
:101EE0000600002050207008788878050505060057
:101EF00000702870A0780507070600FE70888088AB
:101F00007010600508080600004020007088F0800E
:101F1000700508080600001020007088F080700529
:101F200008080600002050007088F0807005070740
:101F300006000050007088F0807003080806010059
:101F4000804000C0404040E00308080601002040F7
:101F500000C0404040E003080806010040A000C067
:101F6000404040E0030707060100A000C040404099
:101F7000E00509090600005020500878888888701C
:101F800005080806000068B000B0C8888888050801
:101F90000806000040200070888888700508080640
:101FA000000010200070888888700508080600006E
:101FB000205000708888887005080806000068B006
:101FC0000070888888700507070600005000708838
:101FD0008888700505050600012000F80020050529
:101FE000050600007898A8C8F0050808060000401B
:101FF00020008888888870050808060000102000E6
:1020000088888888700508080600002050008888A5
:102010008888700507070600005000888888887047
:10202000050A0A0600FE102000888888502040809B
:102030000509090600FE8080F0888888F080800508
:1020400009090600FE5000888888502040804445D9
:10205000534341524741522046494C414D454E540D
:102060004F004341524741522046494C414D454E55
:10207000544F0043414D424941522046494C414D45
:10208000454E544F00464C45580050455447004873
:102090004950530041425300504C410043616D612F
:1020A00000526563696E746F002568753A25303299
:1020B00068750025303268753A253032687500251C
:1020C00030326875272530326875002568756420C0
:1020D00025303268753A25303268750065727200B5
:1020E0001FE02010201020101020102020102010A1
:1020F00030300840048003001FE03FF03FF03FF025
:102100001FE01FE03FF03FF03FF00FC007800300EB
:102110003FFFF038007030FC3020FC102078102099
:1021200030102C00D02E31D02F7BD02F7BD02E31F1
:10213000D02C00D020301020781020FC1030FC3043
:102140003800703FFFF03FFFF038007031863023D9
:1021500087102787902F87D02F03D020301020782A
:10216000102078102030102F03D02F87D027879091
:102170002387103186303800703FFFF01FFFF81FB3
:10218000FFF8041040020820020820041040082034
:102190008010410010410008208004104000000021
:1021A0001FFFF81FFFF8496D7072657369C3B36E46
:1021B0002063616E63656C616461004D323520504F
:1021C0000A4D32340050617573616E646F2E2E2E8D
:1021D000004D3234004F66667365742073656E730C
:1021E0006F72205A004E6F206170616761720050FB
:1021F0006F72206661766F7220657370657265001C
:1022000041637475616C697A616E646F2073697380
:1022100074656D610052657669736120747520572D
:10222000692D4669004E6F207365207075646F20BC
:1022300061637475616C697A6172004D333033206B
:1022400055312045256920532569005049442041D6
:1022500075746F2D616A75737465202A00200820DB
:10226000466163746F72002008204D617800200879
:10227000204D696E0041706700456E630054656DC6
:10228000702E204175746F6D2E0056656C2E207671
:1022900069616A65206D696E00566D696E004D61F9
:1022A0007820452056656C004D6178205A2056658F
:1022B0006C004D617820592056656C004D61782086
:1022C000582056656C004163656C2E206D61784521
:1022D000004163656C2E206D61785A004163656C26
:1022E0002E206D617859004163656C2E206D6178F8
:1022F00058004163656C2E205669616A6500416330
:10230000656C2E207265747261632E004163656C8A
:102310006572616369C3B36E0045207061736F734A
:102320002F6D6D005A207061736F732F6D6D0059A2
:10233000207061736F732F6D6D0058207061736F23
:10234000732F6D6D00416A757374657320617661DA
:102350006E7A61646F730054656D70657261747537
:10236000726100436F6E74726F6C61646F7265733B
:1023700020544D43005061736F732F6D6D004163A6
:10238000656C6572616369C3B36E0056656C6F639B
:102390006964616400436F6E666967757261636941
:1023A000C3B36E003F005369677569656E7465203D
:1023B00045737175696E6100477561726461720081
:1023C0005369677569656E7465004E6976656C6101
:1023D000722045737175696E61730043616C696247
:1023E0007261722053656E736F72004D656EC3BA71
:1023F000207072696E636970616C0043616D610089
:10240000426F7175696C6C610056656E74696C61C0
:10241000646F7200436F6E6669677572616369C34A
:10242000B36E00526573742E2066C3A16272696335
:102430006100426F72726172204573746164C3AD52
:10244000737469636173004D373820533738004720
:1024500075617264617220656E206D656D6F726961
:10246000610050726563616C2E202420416A75738F
:102470007465005265632E2046616C6C6F20656C3C
:102480006563747269636F0041706700456E630035
:1024900053656E732E2066696C616D656E746F0096
:1024A0004F66667365742073656E736F72205A0091
:1024B000416A7573746573206176616E7A61646FC9
:1024C00073004D656EC3BA207072696E6369706186
:1024D0006C00436F6E74696E75617220696D707205
:1024E000657369C3B36E0041706700456E63005346
:1024F000656E732E2066696C616D656E746F005039
:10250000757267617220626F7175696C6C61004FE2
:102510005043494F4E4553206465205245494E492A
:1025200043494F00494D5052455349C3934E2050A3
:102530004155534144410020426F7175696C6C6193
:102540003A20004170617263616E646F2E2E2E001E
:1025500000004573706572616E646F207061726116
:1025600000696E696369617220656C2063616D62E8
:10257000696F0064652066696C616D656E746F00DB
:102580004573706572652E2E2E00000043616C65E8
:102590006E74616E646F20626F7175696C6C61003E
:1025A00045737065726520706F72206661766F7218
:1025B0002E2E2E000050756C736520656C20626FA6
:1025C00074C3B36E20706172610063616C656E7478
:1025D0006172206C6120626F7175696C6C610000C2
:1025E000496E736572746520656C2066696C616DF7
:1025F000656E746F00792070756C736520656C2052
:10260000626F74C3B36E007061726120636F6E7429
:10261000696E7561722E2E2E004573706572652E7F
:102620002E2E00000050756C736520706172612061
:10263000636F6E74696E756172000000457370653A
:1026400072616E646F20696D707265736F72610084
:1026500070617261207265616E756461722E2E2EDA
:1026600000004573706572652E2E2E0000003E201E
:1026700000256C642E25696D00546F74616C2045D3
:102680007874727569646F003E2000496D707265E0
:102690007369C3B36E206DC3A173206C61726761EF
:1026A000003E20005469656D706F20746F74616C1A
:1026B00020646520696D702E00436F6D706C6574C9
:1026C00061646173003A2000436F6E742E2064656C
:1026D00020696D7072657369C3B36E003A20004D56
:1026E0004B532047454E204C2056322E31004E652C
:1026F00062756C6120506C757320436C6F7564005B
:1027000032332D30382D3230323200322E302E39E5
:102710002E332E39004D61726C696E004573746101
:1027200064C3AD73746963617320496D702E004991
:102730006E666F2E20496D707265736F7261004D09
:10274000656EC3BA207072696E636970616C004D0A
:102750003130303000446574656E657220696D708B
:1027600072657369C3B36E005265616E75646172A0
:1027700020696D7072657369C3B36E005265632E14
:102780002046616C6C6F20656C6563747269636F61
:10279000004D31313820506E302067656E657261B2
:1027A00074655F746F6B656E0047656E657261720C
:1027B00020546F6B656E004D656EC3BA20707269F0
:1027C0006E636970616C003F00417472C3A1730055
:1027D0005061726172005344206E6F207072657395
:1027E000656E746500496D7072696D69722064650B
:1027F00073646520534400496E666F2E20496D70E6
:102800007265736F7261005472696D616B657220DD
:10281000436C6F756400436F6E66696775726163C0
:1028200069C3B36E0054656D7065726174757261D1
:10283000004D6F76696D69656E746F0043616C69F8
:102840006272616369C3B36E005265616E756461E3
:102850007220696D7072657369C3B36E00416A75E9
:102860007374657300446574656E657220696D707C
:1028700072657369C3B36E005061757361722069CC
:102880006D7072657369C3B36E004F66667365746D
:102890002073656E736F72205A0050616E74616CA4
:1028A0006C6120646520496E662E00544D4B5F4577
:1028B00052524F523A3530333A5573657220707226
:1028C000696E7420776974686F7574204352430A87
:1028D0000A003F00496E696369617220696D707218
:1028E000657369C3B36E0043616E63656C617200AA
:1028F000496D7072696D69720043616E6E6F74200C
:10290000656E746572207375626469723A200002A4
:10291000202E2E004D656EC3BA207072696E6369F9
:1029200070616C0074C3A9636E69636F00436F6E5E
:1029300073756C746172206120736F706F7274654F
:10294000002D4E4F207574696C697A61726C612D2F
:10295000005375676572656E6369613A004D656D18
:102960006F726961205344206461C3B16164610086
:102970002100486F74656E64206D757920667269F8
:102980006F00417472C3A1730050726F6365646518
:1029900072004D6F76696D69656E746F004170618C
:1029A000676172206D6F746F726573004D3834000B
:1029B0004732385A004732385900486F6D65204019
:1029C0000047323858004C6C6576617220616C208B
:1029D0006F726967656E004D656EC3BA207072696B
:1029E0006E636970616C00473238205A0043616E33
:1029F00063656C61720047756172646172004D6F4E
:102A00007665722025736D6D004D6F76657220308E
:102A10002E316D6D004D6F76657220316D6D0068E1
:102A20006173746120746F63617220656C207061E2
:102A300070656C3A004D75657661206C6120626F3F
:102A40007175696C6C6100416365726361722065C8
:102A500078742E20612063616D610045737065722A
:102A6000652E2E2E004F726967656E2058595A00E8
:102A7000473238004D3530300A4739310A47302067
:102A80005A313020463330300A4739300A4732381D
:102A900020580050726563616C2E20242043616DC4
:102AA000610050726563616C2E2024204675736F3F
:102AB000720054656D706572617475726100982062
:102AC00094208F208A208520456E6672696172008D
:102AD00050726563616C2E20240056656E74696CBB
:102AE00061646F720043616D6100426F7175696C62
:102AF0006C61004D656EC3BA207072696E63697057
:102B0000616C004531005A00590058004531005AA7
:102B100000590058004531005A00590041706700C3
:102B2000456E63005800436F6E74726F6C61646F22
:102B300072657320544D4300537465616C7468432F
:102B4000686F7020486162696C69742E004D6F6413
:102B50006F206465207061736F73004CC3AD6D6945
:102B60007465204869627269646F00416D706572B6
:102B7000616A6520436F6E74726F6C61646F72007E
:102B8000416A7573746573206176616E7A61646FF2
:102B900073004176616E6365204B00466C756A6F09
:102BA0000056656E74696C61646F720043616D619B
:102BB00000426F7175696C6C610056656C6F63697A
:102BC000646164004D656EC3BA207072696E63699A
:102BD00070616C006F70656E0054524947474552F2
:102BE0004544003A200066696C616D656E74007A38
:102BF0005F6D696E00795F6D696E00785F6D696EFB
:102C0000005265706F7274696E6720656E647374CC
:102C10006F70207374617475730A0020746F6F2075
:102C20006C6F6E6720657874727573696F6E207053
:102C3000726576656E7465640A0020636F6C64204B
:102C4000657874727573696F6E2070726576656EE3
:102C50007465640A004C6C65766172206120686F4F
:102C60006D6520257325732573009A99C1C10000F5
:102C7000A8C0000000005761726E696E673A204874
:102C80006F6D696E672042756D7020446976697357
:102C90006F72203C20310A0012120A46616C6C618E
:102CA00020616C2069722061206F726967656E0017
:102CB000544D4B5F4552524F523A3031303A003307
:102CC000337E4300406B43000082430000A040007D
:102CD00000A0400000004000006643000066430082
:102CE0000082439A99C1C10000A8C00000000043BF
:102CF000616D62696F7320677561726461646F737F
:102D000000454550524F4D20496E697469616C69A8
:102D10007A65640A00000016430000164300007044
:102D200041000048420000204300002043000048CA
:102D30004400003C44F4010000F401000064000081
:102D4000008813000024F4D43050C38E20C2A24067
:102D500017828B7011127A910D816CD90AA861E1EA
:102D600008C7586607615143061E4B5D05C145A75C
:102D7000041A411104093D9803713931034036DBCF
:102D80000265339102D4305402802E1D02632CEE72
:102D900001752AC501B028A001102781018F256483
:102DA000012B244B01E0223401AC211F018D200DA9
:102DB00001801FFC00841EED00971DDF00B81CD2AF
:102DC00000E61BC600201BBC00641AB200B219A8A2
:102DD000000A19A0006A189900D117910040178BBA
:102DE00000B516840031167E00B31579003A1573CC
:102DF00000C7146F0058146A00EE1366008813634E
:102E00000025135E00C7125B006C125700151254A8
:102E100000C111510070114F0021114B00D6104913
:102E2000008D1047004610440002104200C00F40C1
:102E300000800F3E00420F3C00060F3B00CB0E38D7
:102E400000930E37005C0E3500270E3400F30D3270
:102E500000C10D3100900D3000600D2E00320D2D9F
:102E600000050D2C00D90C2B00AE0C2900850C2977
:102E7000005C0C2700350C27000E0C2600E80B2404
:102E800000C40B2400A00B23007D0B23005A0B2150
:102E900000390B2100180B2000F80A1F00D90A1E68
:102EA00000BB0A1E009D0A1D00800A1D00630A1C4B
:102EB00000470A1B002C0A1B00110A1A00F7091A06
:102EC00000DD091900C4091900AB0919009209179E
:102ED000007B091800630917004C09160036091613
:102EE00000200916000A091500F5081500E008146D
:102EF00000CC081400B8081400A4081400900813AB
:102F0000007D0812006B08130058081200460812D2
:102F100000340811002308110012081100010811E3
:102F200000F0071000E0071000D0071000C00710E5
:102F300000B0070F00A107100091070E0083070FD4
:102F40000074070F0065070E0057070E0049070EB3
:102F5000003B070D002E070E0020070D0013070D84
:102F60000006070D00F9060C00ED060D00E0060C4A
:102F700000D4060C00C8060C00BC060C00B0060C01
:102F800000A4060B0099060C008D060B0082060BB0
:102F90000077060B006C060B0061060A0057060B53
:102FA000004C060A0042060A0038060A002E060AED
:102FB0000024060A001A060A001006090007060A7D
:102FC00000FD050900F4050900EB050900E205090B
:102FD00000D9050900D0050900C7050900BE05098B
:102FE00000B5050800AD050800A50509009C050809
:102FF00000940508008C050800840508007C05087D
:1030000000740508006C050700650508005D0507EC
:1030100000560508004E0507004705070040050853
:103020000038050700310507002A050700230507BA
:10303000001C050600160507000F05070008050619
:103040000002050700FB040600F5040700EE040675
:1030500000E8040600E2040700DB040600D50406CD
:1030600000CF040600C9040600C3040600BD040620
:1030700000B7040600B1040500AC040600A604066F
:1030800000A00405009B04060095040500900406BA
:10309000008A04050085040500800406007A040502
:1030A0000075040500700405006B04050066040546
:1030B00000610405005C0405005704050052040586
:1030C000004D04050048040500430405003E0404C7
:1030D000003A04050035040500300404002C040502
:1030E0000027040400230405001E0404001A04043D
:1030F0000016040500110404000D04040009040571
:10310000000404040000040400FC030400F80304A9
:1031100000F4030400F0030400EC030400E80304DB
:1031200000E4030400E0030400DC030400D803040B
:1031300000D4030400D0030400CC030400C803033C
:1031400000C503030024F404D9201BC40C5C0E98B2
:1031500004C4095F0265077101F405F900FB04B3BB
:103160000048048700C10369005803550003034564
:1031700000BE023A008402310053022A00290225CF
:103180000004022000E4011C00C8011900AF01176F
:1031900000980114008401130071011000610110F6
:1031A0000051010E0043010D0036010B002B010BF5
:1031B0000020010B00150109000C010900030108A2
:1031C00000FB000800F3000800EB000700E4000625
:1031D00000DE000600D8000600D2000600CC000584
:1031E00000C7000500C2000500BD000400B90004CE
:1031F00000B5000400B1000400AD000400A9000403
:1032000000A5000300A20003009F0004009B000330
:103210000098000300950002009300030090000353
:10322000008D0002008B000300880002008600026F
:103230000084000300810002007F0002007D000284
:10324000007B000200790002007700010076000296
:10325000007400020072000100710002006F0002A1
:10326000006D0001006C0002006A000100690002AC
:1032700000670001006600010065000100640002B3
:10328000006200010061000100600001005F0002B7
:10329000005D0001005C0001005B0001005A0001BC
:1032A00000590001005800010057000100560001BC
:1032B00000550001005400010053000000530001BC
:1032C000005200010051000100500001004F0001B8
:1032D000004E0000004E0001004D0001004C0001B6
:1032E000004B0000004B0001004A000100490001B2
:1032F00000480000004800010047000100460000AF
:1033000000460001004500000045000100440001A6
:1033100000430000004300010042000000420001A1
:10332000004100000041000100400001003F00009A
:10333000003F0001003E0000003E0001003D000093
:10334000003D0001003C0000003C0000003C00018A
:10335000003B0000003B0001003A0000003A000181
:10336000003900000039000100380000003800007A
:10337000003800010037000000370001003600006F
:103380000036000000360001003500000035000066
:10339000003500010034000000340000003400015A
:1033A0000033000000330000003300010032000051
:1033B0000032000000320001003100000031000046
:1033C000003100010030000000300000003000013A
:1033D000002F0000002F0000002F0000002F000130
:1033E000002E0000002E0000002E0001002D000025
:1033F000002D0000002D0000002D0001002C000019
:10340000002C0000002C0000002C0001002B00000C
:10341000002B0000002B0000002B0001002A000000
:10342000002A0000002A0000002A000100290000F4
:1034300000290000002900000029000000290001E7
:1034400000280000002800000028000000280000DC
:1034500000280001002700000027000000270000CE
:1034600000270000002700010026000000260000C1
:1034700000260000002600000026000100250000B4
:1034800000250000002500000025000000250000A8
:10349000002500010024000000240000002400009A
:1034A000002400000024000100230000002300008D
:1034B0000023000000230000002300000023000080
:1034C0000023000100220000002200000022000072
:1034D0000022000000220000002200010021000064
:1034E0000021000000210000002100000021000058
:1034F0000021000000210001002000000020000049
:10350000002000000020000000200000002000003B
:103510000020000000200001001F0000001F00002C
:10352000001F0000001F0000001F0000001F00001F
:10353000001F0001001E0000001E0000001E000011
:10354000001E000000C23100001C260000F419001B
:1035500000D80F0000EB080000C004000075020056
:10356000004001000020436F756E7420583A00003F
:1035700043616D61004531004500626564002C20A7
:1035800073797374656D2073746F70706564212036
:103590004865617465725F49443A20004D41585452
:1035A000454D5020747269676765726564004572A5
:1035B000726F723A2054454D502E204DC3815849A8
:1035C0004D4100544D4B5F4552524F523A303332C9
:1035D0003A004D494E54454D5020747269676765F5
:1035E000726564004572726F723A2054454D502ED8
:1035F000204D494E494D4100544D4B5F4552524F6D
:10360000523A3033333A00544D4B5F4552524F5289
:103610003A3033313A0048656174696E67206661FB
:10362000696C65640043616C656E742E2066616C24
:103630006C69646F00544D4B5F4552524F523A30A3
:1036400033313A00202F002042403A0020403A0017
:1036500020573A000009121B242D363F48415A5387
:103660006C657E7719100B023D342F265158434A62
:10367000757C676E323B2029161F040D7A736861D2
:103680005E574C452B2239300F061D14636A717842
:10369000474E555C646D767F4049525B2C253E3722
:1036A00008011A137D746F6659504B42353C272E22
:1036B0001118030A565F444D727B60691E170C0592
:1036C0003A3328214F465D546B627970070E151C02
:1036D000232A31384148535A656C777E09001B1202
:1036E0002D243F3658514A437C756E671019020BE2
:1036F000343D262F737A6168575E454C3B32292052
:103700001F160D046A6378714E475C55222B3039C1
:10371000060F141D252C373E0108131A6D647F76A1
:1037200049405B523C352E2718110A03747D666FA1
:103730005059424B171E050C333A21285F564D4411
:103740007B7269600E071C152A233831464F545D81
:10375000626B707900002110422063308440A550D4
:10376000C660E770088129914AA16BB18CC1ADD1C7
:10377000CEE1EFF13112100273325222B55294426F
:10378000F772D662399318837BB35AA3BDD39CC317
:10379000FFF3DEE36224433420040114E664C774BB
:1037A000A44485546AA54BB528850995EEE5CFF567
:1037B000ACC58DD55336722611163006D776F6660F
:1037C0009556B4465BB77AA719973887DFF7FEE7B7
:1037D0009DD7BCC7C448E5588668A77840086118DB
:1037E00002282338CCC9EDD98EE9AFF94889699907
:1037F0000AA92BB9F55AD44AB77A966A711A500AAF
:10380000333A122AFDDBDCCBBFFB9EEB799B588B56
:103810003BBB1AABA66C877CE44CC55C222C033CFA
:10382000600C411CAEED8FFDECCDCDDD2AAD0BBDA6
:10383000688D499D977EB66ED55EF44E133E322E4E
:10384000511E700E9FFFBEEFDDDFFCCF1BBF3AAFF6
:10385000599F788F8891A981CAB1EBA10CD12DC154
:103860004EF16FE18010A100C230E32004502540EA
:1038700046706760B9839893FBA3DAB33DC31CD34A
:103880007FE35EF3B1029012F322D232354214523A
:1038900077625672EAB5CBA5A89589856EF54FE596
:1038A0002CD50DC5E234C324A0148104667447648A
:1038B00024540544DBA7FAB79987B8975FE77EF7EA
:1038C0001DC73CD7D326F2369106B01657667676DA
:1038D000154634564CD96DC90EF92FE9C899E989B6
:1038E0008AB9ABA94458654806782768C018E1082A
:1038F0008238A3287DCB5CDB3FEB1EFBF98BD89B8A
:10390000BBAB9ABB754A545A376A167AF10AD01A79
:10391000B32A923A2EFD0FED6CDD4DCDAABD8BADD5
:10392000E89DC98D267C076C645C454CA23C832CC9
:10393000E01CC10C1FEF3EFF5DCF7CDF9BAFBABF29
:10394000D98FF89F176E367E554E745E932EB23E19
:10395000D10EF01E7C3C3E5E2B3D3F2F5B5D3B2C31
:103960002A225C00544D4B5F4552524F523A35303B
:10397000313A53644261736546696C652E637070B9
:103980002D7265616428292D340A0A00544D4B5F5D
:103990004552524F523A3530313A53644261736561
:1039A00046696C652E6370702D7265616428292DDF
:1039B000330A0A00544D4B5F4552524F523A35304C
:1039C000313A53644261736546696C652E63707069
:1039D0002D7265616428292D320A0A00544D4B5F0F
:1039E0004552524F523A3530313A53644261736511
:1039F00046696C652E6370702D7265616428292D8F
:103A0000310A0A00544D4B5F4552524F523A3530FD
:103A1000323A5364566F6C756D652E6370702D6607
:103A2000617447657428292D310A0A0043616E6E5E
:103A30006F74206F70656E20737562646972200008
:103A400046616C6C6F20616C20696E69636961729C
:103A50002053440053442063617264206F6B0A005A
:103A60006F70656E526F6F74206661696C65640A71
:103A700000766F6C756D652E696E6974206661697C
:103A80006C65640A004E6F20534420636172640ABF
:103A9000000A4D3234004D3233202573002E0A00C7
:103AA0006F70656E206661696C65642C2046696C78
:103AB000653A20006563686F3A46696C65207365F6
:103AC0006C65637465640A002053697A653A200066
:103AD0006563686F3A46696C65206F70656E6564F2
:103AE0003A2000454E4420535542524F5554494EBA
:103AF000450A002220706F73002220706172656E8B
:103B0000743A2200535542524F5554494E45204372
:103B1000414C4C207461726765743A2200446573AD
:103B2000626F7264616D69656E746F206465207385
:103B300075626C6C616D6164610045786365656494
:103B40006564206D617820535542524F5554494E5B
:103B5000452064657074683A002E0A0044656C65FF
:103B600074696F6E206661696C65642C2046696CAF
:103B7000653A20002F6175746F25632E67005772B8
:103B80006974696E6720746F2066696C653A2000FD
:103B9000667265736800646F696E67002066696CA1
:103BA000653A20004E6F7720005344207072696E92
:103BB00074696E672062797465200000000000005F
:103BC00000000000000000000000000000000000F5
:103BD00000000000000000000000000000000000E5
:103BE00000000000000000000000000000000000D5
:103BF00000000000000000000000000000000000C5
:103C00000003FFE0000000000000000000000000D2
:103C1000001E001E00000000000000000000000068
:103C200000700003800000000000000000000000A1
:103C300001800000600000000000000000000000A3
:103C40000600000038000000000000000000000036
:103C50000C0000000C00000000000000000000004C
:103C6000100000000600000000000000000000003E
:103C70002000000001000000000000000000000023
:103C80004000000000800000000000000000000074
:103C90008000000000400000000000000000000163
:103CA00000000000002000000000000000000003F1
:103CB00000000000003000000000000000000006CE
:103CC00000000000001000000000000000000004E0
:103CD0000000000000080000000000000000000CD0
:103CE00000001200000C00000000000000000008AE
:103CF0000000120000040000000000000000001896
:103D00000100330020060000000000000000001049
:103D1000038033007002000000000000000000106B
:103D2000010073802002000000000000000000205D
:103D3000000073800001000000000000000000206F
:103D40000000F3C00001000000000000000000209F
:103D50000000F3C00001000000000000000000604F
:103D60000001F3E00001000000000000000000403E
:103D70000001F3E00001000000000000000000402E
:103D80000003F3F00000800000000000000000408D
:103D90000003F3F00000800000000000000000407D
:103DA0000007F3F800008000000000000000004061
:103DB0000007E1F800008000000000000000004063
:103DC000000F8CFC0000800000000000000000409C
:103DD000001F1E3C000080000000000000000040AA
:103DE000001E7F9E000080000000000000000040D8
:103DF0000038FFC600008000000000000000004006
:103E00000031FFE30001000000000000000000207E
:103E10000047FFF800010000000000000000002043
:103E2000000FFFFC00010000000000000000002067
:103E3000001FFFFE00010000000000000000003035
:103E4000000000000003000000000000000000105F
:103E50000000000000020000000000000000001050
:103E60000000000000020000000000000000000848
:103E70000000000000040000000000000000000836
:103E8000000000000004000000000000000000042A
:103E90000000000000080000000000000000000416
:103EA00000000000001800000000000000000002F8
:103EB00000000000001000000000000000000001F1
:103EC00000000400002000000000000000000001CD
:103ED00080000E00006000000000000000000000F4
:103EE000C000040000C0000000000000000000004E
:103EF00060000000018000000000000000000000E1
:103F0000300000000300000000000000000000007E
:103F10001800000006000000000000000000000083
:103F20000600000018000000000000000000000073
:103F3000030000003000000000000000000000004E
:103F400000C00000C00000000000000000000000F1
:103F50000038000700000000000000000000000022
:103F6000000FC0F80000000000000000000000008A
:103F700000007F8000000000000000000000000042
:103F80000000000000000000000000000000000031
:103F90000000000000000000000000000000000021
:103FA0000000000000000000000000000000000011
:103FB00000000000000000000000006D61726C69EC
:103FC0006E66772E6F726700322E302E392E332EAA
:103FD00039001FFFFFFFFFFFFF600000000001FF2F
:103FE000400000000000FF8000000000007F83CF41
:103FF00000000C303F87FF80000C301F8679800066
:104000000C000F8C30C7838C30E78C30CFC7CC319D
:10401000F38C30DCECEC33B98C30D86C6C33198C0D
:1040200030D06C0C33198C30D86C0C33198C30DCDC
:104030006C0E3B198C30CF7C079F198C30C77C03EA
:104040008F19400000000000026000000000000620
:104050001FFFFFFFFFFFF870012C0190012701B047
:10406000012201C0011D01F00118011002130130ED
:10407000020E016002090190020401C002FF00006B
:1040800003FA004003F5008003F000D003EB0020AA
:1040900004E6007004E100E004DC004005D700C045
:1040A00005D2004006CD00D006C8008007C300300E
:1040B00008BE00F008B900C009B400B00AAF00B0F3
:1040C0000BAA00D00CA500000EA000500F9B00C052
:1040D0001096005012910000148C00C0158700B09B
:1040E000178200B0197D00D01B7800001E730040BD
:1040F000206E0090226900F024640040275F009049
:10410000295A00E02B5500102E500020304B001093
:10411000324600E033410090353C001037370070E4
:10412000383200A0392D00B03A2800A03B230060AF
:104130003C1E00103D1900903D1400103E0F007011
:104140003E0A00C03E0500003F0000403FFBFF80EC
:104150003FF6FFC03FF1FF4D61726C696E20322E59
:10416000302E392E332E390A0020536F6674776152
:1041700072652052657365740A0020576174636824
:10418000646F672052657365740A002042726F770E
:104190006E206F75742052657365740A002045782F
:1041A0007465726E616C2052657365740A00506F9D
:1041B00077657255700A0073746172740A0047392A
:1041C000310A204731205A332046353030300A201A
:1041D0004739300A20473120582D313520463530B7
:1041E00030300A20473120593232302046353030C5
:1041F000300A4D3138004D31303031006F6B006581
:1042000072726F722077726974696E6720746F20A2
:1042100066696C650A00446F6E6520736176696E2D
:10422000672066696C652E0A004D323900456E6460
:1042300073746F7073002553202563202563202538
:104240006320256300205A3A0020593A0020583A4A
:1042500000656E6473746F7073206869743A20002F
:1042600000002100240027002A002D003000330028
:1042700001010000040107010A0100000A0B020904
:104280000C0D0E08070304010000000000000000F0
:10429000000000000000000000000000000000001E
:1042A00000000000000012111000000000000000DB
:1042B00000000000000000000000000000000000FE
:1042C000000020002300260029002C002F003200CF
:1042D0000001000003010601090100002200250081
:1042E00028002B002E0031003400020100000501DF
:1042F00008010B0105050505070508080808020265
:1043000002020A0A0808040404040101010101016F
:1043100001010303030303030303040707070C0C52
:104320000C0C0C0C0C0C0202020206060606060619
:1043300006060B0B0B0B0B0B0B0B010210202008BE
:1043400008102040102040800201020108040201F0
:10435000010204081020408080402010080402015F
:1043600080040201804020100804020108040201B8
:10437000010204081020408001020408102040803F
:10438000004D6F7665722025736D6D004D6F7665FB
:104390007220302E316D6D004D6F76657220316D5B
:1043A0006D004D6F7665722031306D6D004D6F760A
:1043B000657220656A6573004578747275736F72F3
:1043C000004D6F766572205A004D6F7665722059E8
:1043D000004D6F766572205800496D7072696D6985
:1043E000722064657364652053440020746F6F20ED
:1043F0006C6F6E6720657874727573696F6E20706C
:10440000726576656E7465640A00496E73657274D0
:104410002066696C616D656E7420616E64207072D7
:1044200065737320627574746F6E0A00544D4B5F30
:104430004552524F523A3034303A0046616C6C6FFC
:1044400020616C2073656E7361722063616D610021
:10445000205A3A200020593A200042656420583AF8
:10446000200046616C6C6120616C206972206120C3
:104470006F726967656E00544D4B5F4552524F52E3
:104480003A3031303A00FFFFFF546865726D616C5D
:104490002052756E6177617900465547412054C3BB
:1044A00089524D49434120656E204558542E005491
:1044B0004D4B5F4552524F523A3033303A0020450F
:1044C00000205A0020590020204D39322058005336
:1044D000746570732070657220756E6974004E6526
:1044E00062756C6120506C757320436C6F7564202D
:1044F0004C6973746100496D7072696D69656E64B1
:104500006F2E2E2E00496D7072657369C3B36E20D5
:10451000506175736164610020496E76616C6964F5
:1045200020452073746570706572200020452073EB
:10453000746570706572206E6F7420737065636946
:10454000666965640A006F6B0A00526573656E6484
:104550003A2000220A00556E6B6E6F776E20636FF3
:104560006D6D616E643A20220020453A00205A3A6F
:104570000020593A00583A00A5008D0011241FBEB2
:10458000CFEFD1E2DEBFCDBF00E00CBF84B7809398
:10459000811D14BE0FB6F894A895809160008861C3
:1045A00080936000109260000FBE13E0A0E0B2E0C4
:1045B000E0EBFBEA02E00BBF02C007900D92A83FC0
:1045C000B107D9F72DE1A8EFB3E001C01D92A138E2
:1045D000B207E1F712E2CDEBD2E200E006C021978C
:1045E0000109802FFE010F94B152CC3BD10780E02E
:1045F0000807A9F70F9436400D94C7550C94000096
:1046000090E080E00895CF93DF93DB01F9019C9166
:104610009130C1F0943080F094509C938830D1F464
:1046200080819181009771F0019791838083480F79
:10463000591FEA01188206C08C3539F49C5F9C939F
:10464000943041F4DF91CF9108958B3339F781E0B5
:104650008C93F8CF20813181B9016F5F7F4F7183D7
:104660006083420F531FEA018883808191818F35D7
:1046700091056CF7E7CF0F931F9381E00091231B07
:104680001091241B2091251B3091261B40911F1B4C
:104690005091201B6091211B7091221B041715075C
:1046A0002607370708F480E01F910F9108952091A5
:1046B0004108833021F425FD0CC024FD0CC030E0FE
:1046C000A90102C0559547958A95E2F7CA01817004
:1046D000089581E0089580E0089580915C0884FD4C
:1046E0000BC080915E0887FD07C090915F089370B2
:1046F00081E019F480E0089581E008952FEB280F00
:104700002A3108F047C0E22FF0E080915C089091D8
:104710005D08A0915E08B0915F0804C0B695A795AA
:10472000979587952A95D2F780FD02C081700895EC
:10473000EE5BF74FE081EE2341F180912F199091CC
:104740003019E80FF92FF11D808190ED980F9A3004
:1047500030F08E3251F4818180538A3098F4F09396
:104760002D08E0932C0881E008958D3211F08B32F2
:1047700049F4818190ED980F9A3088F38E3211F4CC
:104780008281EACFF0E0E0E0EACF10922D081092AB
:104790002C08E9CF80E00895B1DF882341F081E063
:1047A00020912C0830912D08232B09F480E00895E6
:1047B0008F929F92AF92BF92CF92DF92EF92FF9231
:1047C0000F931F93CF93DF93853008F095C065302A
:1047D00008F092C0C62F8823D9F1843009F04DC06B
:1047E00082E09FEF9C0F9330A8F5D0E09E0121500E
:1047F000310990E0FC01EE0FFF1FE80FF91FE20FF7
:10480000F31FEE0FFF1FEE0FFF1FEF5BF64F6081F0
:104810007181828193819B01AC010F94F052CC0F86
:10482000DD1FCC0FDD1FC75BD64F288139814A8140
:104830005B810F94EF52DF91CF911F910F91FF9009
:10484000EF90DF90CF90BF90AF909F908F900895A2
:1048500080E0C7CF6C2F8F5FABDF6B017C016C2FCB
:1048600082E0A6DF4B015C01A7019601C701B601FA
:104870000F94F052A5019401DCCF282F2150330B67
:104880008901B901660F771FCC2319F1C43019F5DE
:10489000C2E0600F711FC60FD72FD11DCC0FDD1FD7
:1048A000CC0FDD1FCF5BD64F688179818A819B81D8
:1048B0009B01AC010F94F0522CE0209FF001219F4E
:1048C000F00D1124EF5BF64F24813581468157812D
:1048D000B0CFC0E0DECF600F711FC150DD0BC60F3F
:1048E000D71FCC0FDD1FCC0FDD1FCF5BD64F6881EC
:1048F00079818A819B819FCF60E070E0CB019BCF63
:104900002F923F924F925F926F927F928F929F92DF
:10491000AF92BF92CF92DF92EF92FF920F931F93CD
:10492000CF93DF93CDB7DEB72E970FB6F894DEBFE7
:104930000FBECDBFF82EE62E042F122F282F30E009
:104940003A872987862F90E09C878B87220F331F19
:10495000A985BA852A0F3B1F3E872D87FC01E20FF0
:10496000F31FEE0FFF1FEE0FFF1FEF5BF64F60818F
:104970007181828193819B01AC010F940C55882336
:1049800009F440C1802F8F0D612F6E0D282F30E06C
:10499000F901EE0FFF1FE20FF31FAB85BC85AE0FD1
:1049A000BF1FAA0FBB1FAA0FBB1FAF5BB64FAC90B8
:1049B0001196BC9011971296CC9012971396DC909A
:1049C000080F802F90E0AC01440F551F480F591F6E
:1049D000AB85BC85A40FB51FAA0FBB1FAA0FBB1FB9
:1049E000AF5BB64FEC901196FC90119712960C911C
:1049F000129713969C90862F90E0AD85BE85A80FE8
:104A0000B91FAA0FBB1FAA0FBB1FAF5BB64F8C907D
:104A100011967C90119712966C90129713965C9059
:104A2000610F70E02D853E85260F371F220F331F43
:104A3000220F331F2F5B364F3E872D87D9014C90B5
:104A400011963C90119712961C91129713962C90E8
:104A5000E80FF91FEE0FFF1FEE0FFF1FEF5BF64F82
:104A6000B081B98321812A8332813B8383818C8306
:104A7000FA01E60FF71FEE0FFF1FEE0FFF1FEF5BB0
:104A8000F64F90819D83A181AE83B281BF83238144
:104A900028879701402F592DB701802F992D0F940A
:104AA0000C55882321F0E12CF12C00E0912C95018C
:104AB000A601B501C6010F940C55882319F05701C2
:104AC000C02ED92C242D332D412F522D642D732D22
:104AD000812F922D0F940C55882321F0412C312CDD
:104AE00010E0212C282D372D462D552D682D772DA2
:104AF000862D952D0F940C55882321F0842C732C32
:104B0000612E522C2D813E814F8158856D817E8191
:104B10008F8198850F940C55882321F01D821E8269
:104B20001F82188629813A814B815C8169817A8153
:104B30008B819C810F940C55882341F03D813983F2
:104B40008E818A839F819B83A885AC83E985FA85C2
:104B5000EE0FFF1F29853A85E20FF31F8B859C8599
:104B6000E80FF91FEE0FFF1FEE0FFF1FEF5BF64F71
:104B7000FA87E9879501A601B501C6010F94F052A5
:104B80009701402F592D0F94EF526B017C01282D76
:104B9000372D462D552D682D772D862D952D0F946B
:104BA000F052242D332D412F522D0F94EF529B01A3
:104BB000AC01C701B6010F94F0526B017C01298151
:104BC0003A814B815C8169817A818B819C810F94D0
:104BD000F0522D813E814F8158850F94EF529B01F9
:104BE000AC01C701B6010F94F05220E030E040E480
:104BF00050E40F946A53A985BA856D937D938D9384
:104C00009C9313972E960FB6F894DEBF0FBECDBFC0
:104C1000DF91CF911F910F91FF90EF90DF90CF9098
:104C2000BF90AF909F908F907F906F905F904F90CC
:104C30003F902F90089510926E0880915A029091A3
:104C40005B02A0915C02B0915D0280937609909323
:104C50007709A0937809B09379090895EF92FF92AC
:104C60000F931F93CF93DF93EC018B017A018A8519
:104C70009B858617970731F0888199810F94773546
:104C80001B870A87B701888199810F94C32C2E81D5
:104C90003F81820F932F911D9F838E8390E080E050
:104CA000DF91CF911F910F91FF90EF9008959F9208
:104CB000AF92BF92CF92DF92EF92FF920F931F932A
:104CC000CF93DF93EC018B01942EA52E8A859B85D3
:104CD0008617970731F0888199810F9477351B8764
:104CE0000A8788859985019649F5BC800A818E815D
:104CF000080FC880D980D6015596ED91FC91C60168
:104D00001995B80EE92CFA2C10E0F70121917F01DA
:104D1000211127C08E819F81810F911D9F838E83DA
:104D200090E080E0DF91CF911F910F91FF90EF9085
:104D3000DF90CF90BF90AF909F9008950E811F811C
:104D4000692D7A2D888199810F94C32C800F912F22
:104D5000911D288539852817390738F681E090E0BC
:104D6000E1CF4B2D602FC6010F94CF35080F180FE0
:104D7000CCCFDF92EF92FF920F931F93CF93DF93ED
:104D8000EC01D62E1CAD0BAD7C0184E0E80EF11CCD
:104D9000E98DFA8DC7011995412F480F2D2D602FF0
:104DA000C7010F94CF359BAD890F8BAF81E090E0A9
:104DB000DF91CF911F910F91FF90EF90DF900895B9
:104DC000CF93DF93C0914C0BD0914D0B209729F1DD
:104DD0006091480B7091490B80914A0B90914B0B5D
:104DE0000F94D2536E5F7F4F24976C177D07ACF4FE
:104DF00070938B0960938A090F940632605A75414B
:104E00008F4F9F4F60938C0970938D0980938E090B
:104E100090938F09DF91CF91089510928C09109291
:104E20008D0910928E0910928F09F4CFAB01BC014D
:104E30004093231B5093241B6093251B7093261BC8
:104E40008AE89CE10C944CCF63E00D944F25CF93FE
:104E5000DF9300D01F92CDB7DEB780E090E0A0EAEC
:104E6000B1E489839A83AB83BC8361E0CE01019670
:104E70000E944DFA0F900F900F900F90DF91CF91FD
:104E8000089580912C0890912D08009731F04AE008
:104E900050E070E060E00D940B4A60E070E0CB0100
:104EA000089580912C0890912D08009731F04AE0E8
:104EB00050E070E060E00D94DE4860E070E0CB010F
:104EC0000895CF93DF93EB0167DC882311F0E9DFCE
:104ED000EB01CE01DF91CF910895E3DF97FD0AC08A
:104EE000E0DF6F3F71058105910509F02CF4D9DFF2
:104EF000862F089580E008958FEF0895CF93C62FF1
:104F00004BDC882311F0CF91E8CF8C2FCF910895FF
:104F100080912C0890912D08892B39F0DEDF91E0EB
:104F2000811101C090E0892F089591E0FCCFCF93CB
:104F3000DF93C82FD62F30DC882319F0DF91CF9173
:104F4000E7CF8C2FDBDB811101C08D2FDF91CF915B
:104F50000895A7DFCB0108950F931F93CF938091FE
:104F60002C0890912D080097E9F0FC018F01C19168
:104F70002C2F2F7D81F0C53411F0C536B9F7F8011B
:104F8000108270E060E00F948847F801C083CF91F1
:104F90001F910F91089570E060E0CF911F910F91E4
:104FA0000D94884760E070E0CB01F1CFCF92DF92A3
:104FB000EF92FF926A017B01EFDB882329F0FF90DB
:104FC000EF90DF90CF90C8CFC701B601FF90EF9070
:104FD000DF90CF90089583E5DFDB8823E1F00F9425
:104FE000063260939D0970939E0980939F09909368
:104FF000A009B2DF20E030E04AE754E40F944F4CC0
:105000000F94D753609318027093190280931A0279
:1050100090931B02089561DB8823B1F10E942EE179
:1050200085E46CDB81110E941BE080915C0890910B
:105030005D08A0915E08B0915F0837E1B695A7952D
:10504000979587953A95D1F780FF03C080E00E943D
:10505000F8DF80915F0880FF03C081E00E94F8DFE5
:1050600080915C0890915D08A0915E08B0915F0806
:1050700029E1B695A795979587952A95D1F780FF51
:1050800005C082E00C94F8DF0C943FE108952F9264
:105090003F924F925F926F927F928F929F92AF92C8
:1050A000BF92CF92DF92EF92FF920F931F93CF9315
:1050B000DF93CDB7DEB7E0970FB6F894DEBF0FBE33
:1050C000CDBF20E030E040EA50E460916D0970917E
:1050D0006E0980916F09909170090F946A536B016A
:1050E0007C0120E030E040EA50E460917109709169
:1050F000720980917309909174090F946A534B015E
:105100005C0120E030E0A901C701B6010F94EA4B31
:10511000882309F4E8C0A701960160E070E080E808
:105120009FE30F946A536B017C0120E030E0A901FA
:10513000C501B4010F94EA4B882309F4D8C0A50136
:10514000940160E070E080E89FE30F946A53C0929E
:105150001F08D0922008E0922108F0922208609364
:1051600023087093240880932508909326088FE2E3
:10517000A82E86E0B82E10E0650124E02CA300E004
:105180001601F12C912C812C8F2D90E0B0E0A0E045
:105190008BA79CA7ADA7BEA7E82CFF2019F0123063
:1051A00009F468C0EE2019F0023009F463C06BA561
:1051B0007CA58DA59EA50F94EE4B20E030E040EA43
:1051C00050E40F946A536FA378A789A79AA76E2D0E
:1051D00070E090E080E00F94EE4B20E030E040EA99
:1051E00050E40F946A532B013C01DE015196BBA39E
:1051F000AAA3E02EBAA1BFA7EBA1E8ABCE0101960E
:105200009EA38DA319A269A1610F8E2DD1DAADA144
:10521000BEA16D937D938D939D93BEA3ADA3B9A1C4
:10522000BF5FB9A3B43079F74FA158A569A57AA596
:10523000CE0101960F943724EAA1FBA161937193EB
:1052400081939193FBA3EAA3E394FCA1EF12D6CF41
:10525000B301A2018FA598A90F9437242CE2289DB1
:10526000F001299DF00D1124E20DF31D608371837F
:10527000828393838FEF881A980A95E089169104A8
:1052800009F08ACFF394A4E02A0E311CB5E0FB129A
:1052900079CF0F5FECEDCE0ED11CFCA1FF5FFCA31C
:1052A000033009F06DCF1F5F24E1A20EB11C133053
:1052B00009F062CFE0960FB6F894DEBF0FBECDBF07
:1052C000DF91CF911F910F91FF90EF90DF90CF90E2
:1052D000BF90AF909F908F907F906F905F904F9016
:1052E0003F902F900895C12CD12C76011ECF60E005
:1052F00070E0CB012CCFCF93C82F89EE93E00197BC
:1053000039F000C00000EEE5F9E03197F0F7F7CF93
:10531000F89489EE93E0019739F000C00000E6EEC2
:10532000F3E03197F0F7F7CF0E9442DDCC2319F07C
:10533000CF910C9423E0CF910C941BE0119800C006
:105340009091020187FD9095917090930001119AC0
:1053500000C000C0119800C09091020186FD909598
:10536000917090930001119A00C000C0119800C084
:105370009091020185FD9095917090930001119A92
:1053800000C000C0119800C09091020184FD90956A
:10539000917090930001119A00C000C0119800C054
:1053A0009091020183FD9095917090930001119A64
:1053B00000C000C0119800C09091020182FD90953C
:1053C000917090930001119A00C000C0119800C024
:1053D0009091020181FD9095917090930001119A36
:1053E00000C000C0119800C08091020181708093BC
:1053F0000001119A00C000C0089520E030E040E0B4
:105400005FE3609154127091551280915612909101
:1054100057120F94F0520F94D253CB0108959CE091
:10542000899F802D112491E0980F909366082CE0BD
:10543000280F2093960B30E02E5F3F4F4091161BB4
:105440004217130619F014F080E008952091181BFC
:105450009217D0F7662341F08E5F0F94A0348091AD
:10546000960B8E5F0F94A0348091960B9091161B33
:10547000891750F32091181B90916608291720F383
:105480001092191B80931A1B81E00895CF9380918D
:105490006508811154C01092191B10921A1B1092AA
:1054A0001B1B1092E71A1092E61A1092E91A10923A
:1054B000E81A1092EB1A81E08093EA1A82E2809354
:1054C000EC1A1092F11A1092F01AE5E0FBE123E1D8
:1054D0003BE18FEF81932E173F07E1F7C1E0C093C7
:1054E000021B27E830E03093F81A2093F71AC09394
:1054F000F91A1092FA1A1092FB1A90E49093FC1A7F
:105500001092FD1A21E930E03093141B2093131BF5
:105510002FE132E03093E51A2093E41A97E190935B
:10552000091B91E190930A1B90E19093071B8093D4
:10553000061B8093051B0F947E33C093650881E0A2
:105540008093670887EF95E190938619809385197A
:105550001092881910928719CF91089520916408AC
:10556000022E000C330B8217130641F0809364085F
:1055700067EF75E182EE9AE10D9477350895CF9249
:10558000DF92EF92FF920F931F93CF93DF93CDB7EC
:10559000DEB72C970FB6F894DEBF0FBECDBF6F3FBE
:1055A00071058105910509F0C8F48EED9AE1E1DB02
:1055B000E091E61AF091E71A3196849190E02C96EA
:1055C0000FB6F894DEBF0FBECDBFDF91CF911F9114
:1055D0000F91FF90EF90DF90CF900895F090191BFE
:1055E000E0901A1B2091670821110FC047ED55E18B
:1055F0006E2D8F2D0F943A3690E080E0F80EF092E9
:10560000191BE0921A1B9927DACFC090E61AD090A6
:10561000E71A22EE3AE13A8329832F2D30E03C83CA
:105620002B832E2D30E03E832D8318861F822FEF93
:105630003FEF3A8729871C861B8607E516E29E0105
:105640002F5F3F4FAB01BC01C6010F944F1DB60148
:1056500082EE9AE10F9477358F819885CFCFCF93E3
:10566000DF93FC0125AD211104C021E025AF0F948B
:105670007E33C091E41AD091E51AE091131BF091AA
:10568000141B82E01995E091131BF091141B81E02B
:10569000199530E020E044E1BE0182EE9AE10F94DA
:1056A0007A3325E13BE147E1BE0182EE9AE10F94B6
:1056B0007A33E091131BF091141B80E0DF91CF91BE
:1056C0001994CF92DF92EF92FF920F931F93CF9393
:1056D000DF93CDB7DEB72C970FB6F894DEBF0FBEC1
:1056E000CDBFF090191BE0901A1B20916708211183
:1056F0001DC047EB55E16E2D8F2D0F943A3690E08B
:1057000080E0F80EF092191BE0921A1B99272C9654
:105710000FB6F894DEBF0FBECDBFDF91CF911F91C2
:105720000F91FF90EF90DF90CF900895C090E61A10
:10573000D090E71A22EE3AE13A8329832F2D30E008
:105740003C832B832E2D30E03E832D8318861F82D1
:105750007A8769871C861B8607E516E29E012F5F04
:105760003F4F44EC5EE7BC01C6010F94131EB60127
:1057700082EE9AE10F9477358F819885C2CFEEED56
:10578000FAE183AF64AF6FEF7FEFCA019ACFCF9298
:10579000DF92EF92FF920F931F93CF93DF93CDB7DA
:1057A000DEB72C970FB6F894DEBF0FBECDBFF090DA
:1057B000191BE0901A1B2091670821111DC047E9B1
:1057C00055E16E2D8F2D0F943A3690E080E0F80E63
:1057D000F092191BE0921A1B99272C960FB6F89499
:1057E000DEBF0FBECDBFDF91CF911F910F91FF9014
:1057F000EF90DF90CF900895C090E61AD090E71A0E
:1058000022EE3AE13A8329832F2D30E03C832B832B
:105810002E2D30E03E832D8318861F827A8769877C
:105820001C861B8607E516E29E012F5F3F4F47EC63
:105830005EE7BC01C6010F94131EB60182EE9AE129
:105840000F9477358F819885C2CF8F929F92AF92B8
:10585000BF92CF92DF92EF92FF920F931F93CF935D
:10586000DF935B01C42F790141FB662760F9D7DD27
:10587000882309F45FC0D12CC12CA114B10439F0E4
:10588000C5010E94AFB596E0899F6001112410E028
:1058900000E0E114F10429F0C7010E94BDB5082F12
:1058A00010E0C0FF20C080E890E08C199D094AEF0D
:1058B00040039001419F300D1124820F931F6CE033
:1058C00070E00F949E524B01C0E8D0E081E0881A4E
:1058D000910897FC0AC060E270E080E090E04FDE43
:1058E000C81BD90BF3CFC0E8D0E0CD2899F0CE018A
:1058F00066E070E00F948A52262F4091980B5091E9
:10590000990B6091970BC5010E9428BF96E0899F73
:10591000E0011124012B29F0BE01C70138DFC81BAB
:10592000D90BC730D10530F060E270E080E090E044
:1059300026DEF5CFDF91CF911F910F91FF90EF9071
:10594000DF90CF90BF90AF909F908F9008956FEFB2
:105950007FEF1DCFAF92BF92CF92DF92EF92FF9277
:105960000F931F93CF93DF935C016B010E94AFB540
:10597000E82EC6010E94BDB5F12C03E110E0081B22
:105980001109C5E20E151F050CF4CFE18C2F90E034
:105990009C012E5F3F4F4091161B4217130609F0E2
:1059A000C4F509972091181B2817190694F1409106
:1059B000980B5091990B6091970B1092191BC09303
:1059C0001A1B25E1C5010E9428BFD1E0C114D104F2
:1059D000A9F06AE370E080E090E0D1DD0E151F05CC
:1059E000D4F4C45F8091161BC81740F02091181B97
:1059F0004C2F4950550B241715067CF4DF91CF919D
:105A00001F910F91FF90EF90DF90CF90BF90AF90DC
:105A10000895D0E0DBCFDD2389F3802F880F080FB6
:105A2000000F0093191BC0931A1B60E270E080E026
:105A300090E0A5DDC601DF91CF911F910F91FF90FE
:105A4000EF90DF90CF90BF90AF9081CF8F929F92D9
:105A5000AF92BF92CF92DF92EF92FF920F931F937C
:105A6000CF93DF93CDB7DEB72C970FB6F894DEBF98
:105A70000FBECDBF982F862F5A017901D02E692FE6
:105A8000CEDC882309F488C0C701002381F10E947D
:105A9000AFB5C82E8090E61A9090E71A80916708FB
:105AA000811143C01FEF23E12C194091980B5091B5
:105AB000990B6091970BC5010E9428BFCC2009F477
:105AC0006BC0B6E08B9F500111246AE370E080E068
:105AD00090E055DD57E0A516B10408F443C060E23C
